{
  "_format": "hh-sol-artifact-1",
  "contractName": "DepositSecurityModule",
  "sourceName": "contracts/0.8.9/DepositSecurityModule.sol",
  "abi": [
    {
      "inputs": [
        {
          "internalType": "address",
          "name": "_lido",
          "type": "address"
        },
        {
          "internalType": "address",
          "name": "_depositContract",
          "type": "address"
        },
        {
          "internalType": "address",
          "name": "_nodeOperatorsRegistry",
          "type": "address"
        },
        {
          "internalType": "uint256",
          "name": "_networkId",
          "type": "uint256"
        },
        {
          "internalType": "uint256",
          "name": "_maxDepositsPerBlock",
          "type": "uint256"
        },
        {
          "internalType": "uint256",
          "name": "_minDepositBlockDistance",
          "type": "uint256"
        },
        {
          "internalType": "uint256",
          "name": "_pauseIntentValidityPeriodBlocks",
          "type": "uint256"
        }
      ],
      "stateMutability": "nonpayable",
      "type": "constructor"
    },
    {
      "anonymous": false,
      "inputs": [
        {
          "indexed": false,
          "internalType": "address",
          "name": "guardian",
          "type": "address"
        }
      ],
      "name": "DepositsPaused",
      "type": "event"
    },
    {
      "anonymous": false,
      "inputs": [],
      "name": "DepositsUnpaused",
      "type": "event"
    },
    {
      "anonymous": false,
      "inputs": [
        {
          "indexed": false,
          "internalType": "address",
          "name": "guardian",
          "type": "address"
        }
      ],
      "name": "GuardianAdded",
      "type": "event"
    },
    {
      "anonymous": false,
      "inputs": [
        {
          "indexed": false,
          "internalType": "uint256",
          "name": "newValue",
          "type": "uint256"
        }
      ],
      "name": "GuardianQuorumChanged",
      "type": "event"
    },
    {
      "anonymous": false,
      "inputs": [
        {
          "indexed": false,
          "internalType": "address",
          "name": "guardian",
          "type": "address"
        }
      ],
      "name": "GuardianRemoved",
      "type": "event"
    },
    {
      "anonymous": false,
      "inputs": [
        {
          "indexed": false,
          "internalType": "uint256",
          "name": "newValue",
          "type": "uint256"
        }
      ],
      "name": "MaxDepositsChanged",
      "type": "event"
    },
    {
      "anonymous": false,
      "inputs": [
        {
          "indexed": false,
          "internalType": "uint256",
          "name": "newValue",
          "type": "uint256"
        }
      ],
      "name": "MinDepositBlockDistanceChanged",
      "type": "event"
    },
    {
      "anonymous": false,
      "inputs": [
        {
          "indexed": false,
          "internalType": "address",
          "name": "newValue",
          "type": "address"
        }
      ],
      "name": "NodeOperatorsRegistryChanged",
      "type": "event"
    },
    {
      "anonymous": false,
      "inputs": [
        {
          "indexed": false,
          "internalType": "address",
          "name": "newValue",
          "type": "address"
        }
      ],
      "name": "OwnerChanged",
      "type": "event"
    },
    {
      "anonymous": false,
      "inputs": [
        {
          "indexed": false,
          "internalType": "uint256",
          "name": "newValue",
          "type": "uint256"
        }
      ],
      "name": "PauseIntentValidityPeriodBlocksChanged",
      "type": "event"
    },
    {
      "inputs": [],
      "name": "ATTEST_MESSAGE_PREFIX",
      "outputs": [
        {
          "internalType": "bytes32",
          "name": "",
          "type": "bytes32"
        }
      ],
      "stateMutability": "view",
      "type": "function"
    },
    {
      "inputs": [],
      "name": "DEPOSIT_CONTRACT",
      "outputs": [
        {
          "internalType": "address",
          "name": "",
          "type": "address"
        }
      ],
      "stateMutability": "view",
      "type": "function"
    },
    {
      "inputs": [],
      "name": "LIDO",
      "outputs": [
        {
          "internalType": "address",
          "name": "",
          "type": "address"
        }
      ],
      "stateMutability": "view",
      "type": "function"
    },
    {
      "inputs": [],
      "name": "PAUSE_MESSAGE_PREFIX",
      "outputs": [
        {
          "internalType": "bytes32",
          "name": "",
          "type": "bytes32"
        }
      ],
      "stateMutability": "view",
      "type": "function"
    },
    {
      "inputs": [
        {
          "internalType": "address",
          "name": "addr",
          "type": "address"
        },
        {
          "internalType": "uint256",
          "name": "newQuorum",
          "type": "uint256"
        }
      ],
      "name": "addGuardian",
      "outputs": [],
      "stateMutability": "nonpayable",
      "type": "function"
    },
    {
      "inputs": [
        {
          "internalType": "address[]",
          "name": "addresses",
          "type": "address[]"
        },
        {
          "internalType": "uint256",
          "name": "newQuorum",
          "type": "uint256"
        }
      ],
      "name": "addGuardians",
      "outputs": [],
      "stateMutability": "nonpayable",
      "type": "function"
    },
    {
      "inputs": [],
      "name": "canDeposit",
      "outputs": [
        {
          "internalType": "bool",
          "name": "",
          "type": "bool"
        }
      ],
      "stateMutability": "view",
      "type": "function"
    },
    {
      "inputs": [
        {
          "internalType": "bytes32",
          "name": "depositRoot",
          "type": "bytes32"
        },
        {
          "internalType": "uint256",
          "name": "keysOpIndex",
          "type": "uint256"
        },
        {
          "internalType": "uint256",
          "name": "blockNumber",
          "type": "uint256"
        },
        {
          "internalType": "bytes32",
          "name": "blockHash",
          "type": "bytes32"
        },
        {
          "components": [
            {
              "internalType": "bytes32",
              "name": "r",
              "type": "bytes32"
            },
            {
              "internalType": "bytes32",
              "name": "vs",
              "type": "bytes32"
            }
          ],
          "internalType": "struct DepositSecurityModule.Signature[]",
          "name": "sortedGuardianSignatures",
          "type": "tuple[]"
        }
      ],
      "name": "depositBufferedEther",
      "outputs": [],
      "stateMutability": "nonpayable",
      "type": "function"
    },
    {
      "inputs": [
        {
          "internalType": "address",
          "name": "addr",
          "type": "address"
        }
      ],
      "name": "getGuardianIndex",
      "outputs": [
        {
          "internalType": "int256",
          "name": "",
          "type": "int256"
        }
      ],
      "stateMutability": "view",
      "type": "function"
    },
    {
      "inputs": [],
      "name": "getGuardianQuorum",
      "outputs": [
        {
          "internalType": "uint256",
          "name": "",
          "type": "uint256"
        }
      ],
      "stateMutability": "view",
      "type": "function"
    },
    {
      "inputs": [],
      "name": "getGuardians",
      "outputs": [
        {
          "internalType": "address[]",
          "name": "",
          "type": "address[]"
        }
      ],
      "stateMutability": "view",
      "type": "function"
    },
    {
      "inputs": [],
      "name": "getLastDepositBlock",
      "outputs": [
        {
          "internalType": "uint256",
          "name": "",
          "type": "uint256"
        }
      ],
      "stateMutability": "view",
      "type": "function"
    },
    {
      "inputs": [],
      "name": "getMaxDeposits",
      "outputs": [
        {
          "internalType": "uint256",
          "name": "",
          "type": "uint256"
        }
      ],
      "stateMutability": "view",
      "type": "function"
    },
    {
      "inputs": [],
      "name": "getMinDepositBlockDistance",
      "outputs": [
        {
          "internalType": "uint256",
          "name": "",
          "type": "uint256"
        }
      ],
      "stateMutability": "view",
      "type": "function"
    },
    {
      "inputs": [],
      "name": "getNodeOperatorsRegistry",
      "outputs": [
        {
          "internalType": "address",
          "name": "",
          "type": "address"
        }
      ],
      "stateMutability": "view",
      "type": "function"
    },
    {
      "inputs": [],
      "name": "getOwner",
      "outputs": [
        {
          "internalType": "address",
          "name": "",
          "type": "address"
        }
      ],
      "stateMutability": "view",
      "type": "function"
    },
    {
      "inputs": [],
      "name": "getPauseIntentValidityPeriodBlocks",
      "outputs": [
        {
          "internalType": "uint256",
          "name": "",
          "type": "uint256"
        }
      ],
      "stateMutability": "view",
      "type": "function"
    },
    {
      "inputs": [
        {
          "internalType": "address",
          "name": "addr",
          "type": "address"
        }
      ],
      "name": "isGuardian",
      "outputs": [
        {
          "internalType": "bool",
          "name": "",
          "type": "bool"
        }
      ],
      "stateMutability": "view",
      "type": "function"
    },
    {
      "inputs": [],
      "name": "isPaused",
      "outputs": [
        {
          "internalType": "bool",
          "name": "",
          "type": "bool"
        }
      ],
      "stateMutability": "view",
      "type": "function"
    },
    {
      "inputs": [
        {
          "internalType": "uint256",
          "name": "blockNumber",
          "type": "uint256"
        },
        {
          "components": [
            {
              "internalType": "bytes32",
              "name": "r",
              "type": "bytes32"
            },
            {
              "internalType": "bytes32",
              "name": "vs",
              "type": "bytes32"
            }
          ],
          "internalType": "struct DepositSecurityModule.Signature",
          "name": "sig",
          "type": "tuple"
        }
      ],
      "name": "pauseDeposits",
      "outputs": [],
      "stateMutability": "nonpayable",
      "type": "function"
    },
    {
      "inputs": [
        {
          "internalType": "address",
          "name": "addr",
          "type": "address"
        },
        {
          "internalType": "uint256",
          "name": "newQuorum",
          "type": "uint256"
        }
      ],
      "name": "removeGuardian",
      "outputs": [],
      "stateMutability": "nonpayable",
      "type": "function"
    },
    {
      "inputs": [
        {
          "internalType": "uint256",
          "name": "newValue",
          "type": "uint256"
        }
      ],
      "name": "setGuardianQuorum",
      "outputs": [],
      "stateMutability": "nonpayable",
      "type": "function"
    },
    {
      "inputs": [
        {
          "internalType": "uint256",
          "name": "newLastDepositBlock",
          "type": "uint256"
        }
      ],
      "name": "setLastDepositBlock",
      "outputs": [],
      "stateMutability": "nonpayable",
      "type": "function"
    },
    {
      "inputs": [
        {
          "internalType": "uint256",
          "name": "newValue",
          "type": "uint256"
        }
      ],
      "name": "setMaxDeposits",
      "outputs": [],
      "stateMutability": "nonpayable",
      "type": "function"
    },
    {
      "inputs": [
        {
          "internalType": "uint256",
          "name": "newValue",
          "type": "uint256"
        }
      ],
      "name": "setMinDepositBlockDistance",
      "outputs": [],
      "stateMutability": "nonpayable",
      "type": "function"
    },
    {
      "inputs": [
        {
          "internalType": "address",
          "name": "newValue",
          "type": "address"
        }
      ],
      "name": "setNodeOperatorsRegistry",
      "outputs": [],
      "stateMutability": "nonpayable",
      "type": "function"
    },
    {
      "inputs": [
        {
          "internalType": "address",
          "name": "newValue",
          "type": "address"
        }
      ],
      "name": "setOwner",
      "outputs": [],
      "stateMutability": "nonpayable",
      "type": "function"
    },
    {
      "inputs": [
        {
          "internalType": "uint256",
          "name": "newValue",
          "type": "uint256"
        }
      ],
      "name": "setPauseIntentValidityPeriodBlocks",
      "outputs": [],
      "stateMutability": "nonpayable",
      "type": "function"
    },
    {
      "inputs": [],
      "name": "unpauseDeposits",
      "outputs": [],
      "stateMutability": "nonpayable",
      "type": "function"
    }
  ],
  "bytecode": "0x6101006040523480156200001257600080fd5b5060405162001fe238038062001fe28339810160408190526200003591620004c4565b6001600160a01b038716620000855760405162461bcd60e51b81526020600482015260116024820152704c49444f5f5a45524f5f4144445245535360781b60448201526064015b60405180910390fd5b6001600160a01b038616620000dd5760405162461bcd60e51b815260206004820152601d60248201527f4445504f5349545f434f4e54524143545f5a45524f5f4144445245535300000060448201526064016200007c565b6001600160a01b0387811660c052861660e052604080517f1085395a994e25b1b3d0ea7937b7395495fb405b31c7d22dbc3976a6bd01f2bf602082015290810185905260600160408051808303601f1901815282825280516020918201206080527f9c4c40205558f12027f21204d6218b8006985b7a6359bcab15404bcc3e3fa12290830152810185905260600160408051601f19818403018152919052805160209091012060a0526200019133620001ca565b6200019c856200029d565b620001a783620002ec565b620001b28262000322565b620001bd81620003e7565b5050505050505062000535565b6001600160a01b038116620002485760405162461bcd60e51b815260206004820152603c60248201527f696e76616c69642076616c756520666f72206f776e65723a206d75737420626560448201527f20646966666572656e742066726f6d207a65726f20616464726573730000000060648201526084016200007c565b600480546001600160a01b0319166001600160a01b0383169081179091556040519081527fa2ea9883a321a3e97b8266c2b078bfeec6d50c711ed71f874a90d500ae2eaf36906020015b60405180910390a150565b600080546001600160a01b0319166001600160a01b0383169081179091556040519081527f7f40d0cbed36e9d36ffe92f223f1f44635a84ad83db42f8596e4885984b608a29060200162000292565b60018190556040518181527f4d72502b63cfe737b98b225a53708fe347cf8274baed31e0c4e4941b758da9929060200162000292565b60008111620003a45760405162461bcd60e51b815260206004820152604160248201527f696e76616c69642076616c756520666f72206d696e4465706f736974426c6f6360448201527f6b44697374616e63653a206d7573742062652067726561746572207468656e206064820152600360fc1b608482015260a4016200007c565b6002548114620003e45760028190556040518181527fdb69cbc4aa6648b506b7854c26807bfd811c27feaf97ac8847e3a66356cace149060200162000292565b50565b60008111620004715760405162461bcd60e51b815260206004820152604960248201527f696e76616c69642076616c756520666f72207061757365496e74656e7456616c60448201527f6964697479506572696f64426c6f636b733a206d75737420626520677265617460648201526806572207468656e20360bc1b608482015260a4016200007c565b60038190556040518181527f8120886d27fee35672e5d5a482d6c858105aebb26caf12178b8c0034fa88c2ba9060200162000292565b80516001600160a01b0381168114620004bf57600080fd5b919050565b600080600080600080600060e0888a031215620004e057600080fd5b620004eb88620004a7565b9650620004fb60208901620004a7565b95506200050b60408901620004a7565b9450606088015193506080880151925060a0880151915060c0880151905092959891949750929550565b60805160a05160c05160e051611a576200058b600039600081816102c60152610566015260008181610329015261087c015260008181610363015261091a0152600081816103c101526110b30152611a576000f3fe608060405234801561001057600080fd5b50600436106101ce5760003560e01c80637e92331211610104578063b7b7a408116100a2578063c8f712d511610071578063c8f712d5146103eb578063e78a5875146103fe578063eccd085f14610406578063f47610e61461041957600080fd5b8063b7b7a408146103a3578063ba6252b2146103ab578063c6dda2c3146103bc578063c7062e98146103e357600080fd5b80638d71a6f4116100de5780638d71a6f41461034b578063a50833d61461035e578063a749013e14610385578063b187bd261461039857600080fd5b80637e92331214610300578063893d20e8146103135780638b21f1701461032457600080fd5b8063251e3a211161017157806360c8a5471161014b57806360c8a5471461029e57806362272f28146102b157806363d8882a146102b95780636b96736b146102c157600080fd5b8063251e3a21146102705780633ab54bc3146102785780633e6f6d681461028b57600080fd5b80630c68ba21116101ad5780630c68ba2114610214578063111e53131461023757806313af40351461024a57806320d580d11461025d57600080fd5b8062fed902146101d3578063062b662e146101e85780630665f04b146101ff575b600080fd5b6101e66101e13660046115fd565b61042c565b005b6007545b6040519081526020015b60405180910390f35b61020761046b565b6040516101f69190611616565b61022761022236600461167f565b6104cd565b60405190151581526020016101f6565b6101e66102453660046116a1565b6104ef565b6101e661025836600461167f565b61052f565b6101e661026b366004611785565b610562565b6002546101ec565b6101e661028636600461184e565b6108ed565b6101e66102993660046115fd565b610a6c565b6101e66102ac3660046115fd565b610a9f565b6009546101ec565b6101e6610ace565b6102e87f000000000000000000000000000000000000000000000000000000000000000081565b6040516001600160a01b0390911681526020016101f6565b6101e661030e3660046115fd565b610b39565b6004546001600160a01b03166102e8565b6102e87f000000000000000000000000000000000000000000000000000000000000000081565b6101e66103593660046116a1565b610b6c565b6101ec7f000000000000000000000000000000000000000000000000000000000000000081565b6101e661039336600461167f565b610d24565b60085460ff16610227565b6001546101ec565b6000546001600160a01b03166102e8565b6101ec7f000000000000000000000000000000000000000000000000000000000000000081565b6003546101ec565b6101e66103f936600461187b565b610d57565b610227610dc9565b6101e66104143660046115fd565b610e00565b6101ec61042736600461167f565b610e33565b6004546001600160a01b0316331461045f5760405162461bcd60e51b815260040161045690611919565b60405180910390fd5b61046881610e3e565b50565b606060058054806020026020016040519081016040528092919081815260200182805480156104c357602002820191906000526020600020905b81546001600160a01b031681526001909101906020018083116104a5575b5050505050905090565b6001600160a01b03811660009081526006602052604081205415155b92915050565b6004546001600160a01b031633146105195760405162461bcd60e51b815260040161045690611919565b61052282610e7a565b61052b81610fae565b5050565b6004546001600160a01b031633146105595760405162461bcd60e51b815260040161045690611919565b61046881610fe3565b60007f00000000000000000000000000000000000000000000000000000000000000006001600160a01b031663c5f2892f6040518163ffffffff1660e01b815260040160206040518083038186803b1580156105bd57600080fd5b505afa1580156105d1573d6000803e3d6000fd5b505050506040513d601f19601f820116820180604052508101906105f5919061193f565b905080861461063d5760405162461bcd60e51b815260206004820152601460248201527319195c1bdcda5d081c9bdbdd0818da185b99d95960621b6044820152606401610456565b60085460ff16156106865760405162461bcd60e51b815260206004820152601360248201527219195c1bdcda5d1cc8185c99481c185d5cd959606a1b6044820152606401610456565b600060075411801561069b5750600754825110155b6106dc5760405162461bcd60e51b81526020600482015260126024820152716e6f20677561726469616e2071756f72756d60701b6044820152606401610456565b6002546009546106ec904361196e565b10156107325760405162461bcd60e51b8152602060048201526015602482015274746f6f206672657175656e74206465706f7369747360581b6044820152606401610456565b82158015906107415750828440145b6107855760405162461bcd60e51b81526020600482015260156024820152740eadccaf0e0cac6e8cac840c4d8dec6d640d0c2e6d605b1b6044820152606401610456565b60008060009054906101000a90046001600160a01b03166001600160a01b031663d07442f16040518163ffffffff1660e01b815260040160206040518083038186803b1580156107d457600080fd5b505afa1580156107e8573d6000803e3d6000fd5b505050506040513d601f19601f8201168201806040525081019061080c919061193f565b90508086146108555760405162461bcd60e51b81526020600482015260156024820152741ad95e5cc81bdc081a5b99195e0818da185b99d959605a1b6044820152606401610456565b61086287878787876110ad565b6001546040516390adc83b60e01b815260048101919091527f00000000000000000000000000000000000000000000000000000000000000006001600160a01b0316906390adc83b90602401600060405180830381600087803b1580156108c857600080fd5b505af11580156108dc573d6000803e3d6000fd5b505043600955505050505050505050565b60085460ff16156108fc575050565b3360006109088261123c565b90508060001914156109ca57604080517f000000000000000000000000000000000000000000000000000000000000000060208201529081018590526000906060016040516020818303038152906040528051906020012090506109758185600001518660200151611261565b92506109808361123c565b91508160001914156109c85760405162461bcd60e51b8152602060048201526011602482015270696e76616c6964207369676e617475726560781b6044820152606401610456565b505b6003546109d7854361196e565b1115610a1c5760405162461bcd60e51b81526020600482015260146024820152731c185d5cd9481a5b9d195b9d08195e1c1a5c995960621b6044820152606401610456565b6008805460ff191660011790556040516001600160a01b03831681527feb225a736fbfee3f85ccb72bdf84ff0396ab358b7970e2cc351ab3e3fd92358d906020015b60405180910390a150505050565b6004546001600160a01b03163314610a965760405162461bcd60e51b815260040161045690611919565b61046881610fae565b6004546001600160a01b03163314610ac95760405162461bcd60e51b815260040161045690611919565b600955565b6004546001600160a01b03163314610af85760405162461bcd60e51b815260040161045690611919565b60085460ff1615610b37576008805460ff191690556040517f823084e804e36d8971e8b86749b6b0ace7b9f87ed272bef910c1e72d123eeb4890600090a15b565b6004546001600160a01b03163314610b635760405162461bcd60e51b815260040161045690611919565b6104688161128b565b6004546001600160a01b03163314610b965760405162461bcd60e51b815260040161045690611919565b6001600160a01b03821660009081526006602052604090205480610bed5760405162461bcd60e51b815260206004820152600e60248201526d3737ba10309033bab0b93234b0b760911b6044820152606401610456565b60055480821115610c0057610c00611985565b808214610c965760006005610c1660018461196e565b81548110610c2657610c2661199b565b6000918252602090912001546001600160a01b03169050806005610c4b60018661196e565b81548110610c5b57610c5b61199b565b600091825260208083209190910180546001600160a01b0319166001600160a01b039485161790559290911681526006909152604090208290555b6001600160a01b0384166000908152600660205260408120556005805480610cc057610cc06119b1565b600082815260209020810160001990810180546001600160a01b0319169055019055610ceb83610fae565b6040516001600160a01b03851681527fb8107d0c6b40be480ce3172ee66ba6d64b71f6b1685a851340036e6e2e3e3c5290602001610a5e565b6004546001600160a01b03163314610d4e5760405162461bcd60e51b815260040161045690611919565b61046881611349565b6004546001600160a01b03163314610d815760405162461bcd60e51b815260040161045690611919565b60005b8251811015610dbf57610daf838281518110610da257610da261199b565b6020026020010151610e7a565b610db8816119c7565b9050610d84565b5061052b81610fae565b60085460009060ff16158015610de157506000600754115b8015610dfb5750600254600954610df8904361196e565b10155b905090565b6004546001600160a01b03163314610e2a5760405162461bcd60e51b815260040161045690611919565b61046881611397565b60006104e98261123c565b60018190556040518181527f4d72502b63cfe737b98b225a53708fe347cf8274baed31e0c4e4941b758da992906020015b60405180910390a150565b6001600160a01b038116610ec85760405162461bcd60e51b8152602060048201526015602482015274677561726469616e207a65726f206164647265737360581b6044820152606401610456565b6001600160a01b03811660009081526006602052604090205415610f225760405162461bcd60e51b81526020600482015260116024820152706475706c6963617465206164647265737360781b6044820152606401610456565b600580546001810182557f036b6384b5eca791c62761152d0c79bb0604c104a5fb6f4eb0703f3154bb3db00180546001600160a01b0319166001600160a01b038416908117909155905460008281526006602090815260409182902092909255519182527f038596bb31e2e7d3d9f184d4c98b310103f6d7f5830e5eec32bffe6f1728f9699101610e6f565b60078190556040518181527f70d7432f2ec830b36e5b8c45176a8079968714429c4be85665c06ec1b8fde4bb90602001610e6f565b6001600160a01b03811661105f5760405162461bcd60e51b815260206004820152603c60248201527f696e76616c69642076616c756520666f72206f776e65723a206d75737420626560448201527f20646966666572656e742066726f6d207a65726f2061646472657373000000006064820152608401610456565b600480546001600160a01b0319166001600160a01b0383169081179091556040519081527fa2ea9883a321a3e97b8266c2b078bfeec6d50c711ed71f874a90d500ae2eaf3690602001610e6f565b604080517f00000000000000000000000000000000000000000000000000000000000000006020820152908101869052606081018590526080810184905260a0810183905260009060c0016040516020818303038152906040528051906020012090506000805b8351811015611232576000611164848684815181106111355761113561199b565b6020026020010151600001518785815181106111535761115361199b565b602002602001015160200151611261565b9050611187816001600160a01b0316600090815260066020526040902054151590565b6111c75760405162461bcd60e51b8152602060048201526011602482015270696e76616c6964207369676e617475726560781b6044820152606401610456565b826001600160a01b0316816001600160a01b0316116112205760405162461bcd60e51b81526020600482015260156024820152741cda59db985d1d5c995cc81b9bdd081cdbdc9d1959605a1b6044820152606401610456565b915061122b816119c7565b9050611114565b5050505050505050565b6001600160a01b0381166000908152600660205260408120546104e9906001906119e2565b60006001600160ff1b03821660ff83901c601b0161128186828785611454565b9695505050505050565b6000811161130b5760405162461bcd60e51b815260206004820152604160248201527f696e76616c69642076616c756520666f72206d696e4465706f736974426c6f6360448201527f6b44697374616e63653a206d7573742062652067726561746572207468656e206064820152600360fc1b608482015260a401610456565b60025481146104685760028190556040518181527fdb69cbc4aa6648b506b7854c26807bfd811c27feaf97ac8847e3a66356cace1490602001610e6f565b600080546001600160a01b0319166001600160a01b0383169081179091556040519081527f7f40d0cbed36e9d36ffe92f223f1f44635a84ad83db42f8596e4885984b608a290602001610e6f565b6000811161141f5760405162461bcd60e51b815260206004820152604960248201527f696e76616c69642076616c756520666f72207061757365496e74656e7456616c60448201527f6964697479506572696f64426c6f636b733a206d75737420626520677265617460648201526806572207468656e20360bc1b608482015260a401610456565b60038190556040518181527f8120886d27fee35672e5d5a482d6c858105aebb26caf12178b8c0034fa88c2ba90602001610e6f565b60007f7fffffffffffffffffffffffffffffff5d576e7357a4501ddfe92f46681b20a08211156114d15760405162461bcd60e51b815260206004820152602260248201527f45434453413a20696e76616c6964207369676e6174757265202773272076616c604482015261756560f01b6064820152608401610456565b8360ff16601b14806114e657508360ff16601c145b61153d5760405162461bcd60e51b815260206004820152602260248201527f45434453413a20696e76616c6964207369676e6174757265202776272076616c604482015261756560f01b6064820152608401610456565b6040805160008082526020820180845288905260ff871692820192909252606081018590526080810184905260019060a0016020604051602081039080840390855afa158015611591573d6000803e3d6000fd5b5050604051601f1901519150506001600160a01b0381166115f45760405162461bcd60e51b815260206004820152601860248201527f45434453413a20696e76616c6964207369676e617475726500000000000000006044820152606401610456565b95945050505050565b60006020828403121561160f57600080fd5b5035919050565b6020808252825182820181905260009190848201906040850190845b818110156116575783516001600160a01b031683529284019291840191600101611632565b50909695505050505050565b80356001600160a01b038116811461167a57600080fd5b919050565b60006020828403121561169157600080fd5b61169a82611663565b9392505050565b600080604083850312156116b457600080fd5b6116bd83611663565b946020939093013593505050565b634e487b7160e01b600052604160045260246000fd5b604051601f8201601f1916810167ffffffffffffffff8111828210171561170a5761170a6116cb565b604052919050565b600067ffffffffffffffff82111561172c5761172c6116cb565b5060051b60200190565b60006040828403121561174857600080fd5b6040516040810181811067ffffffffffffffff8211171561176b5761176b6116cb565b604052823581526020928301359281019290925250919050565b600080600080600060a0868803121561179d57600080fd5b853594506020808701359450604080880135945060608801359350608088013567ffffffffffffffff8111156117d257600080fd5b8801601f81018a136117e357600080fd5b80356117f66117f182611712565b6116e1565b81815260069190911b8201840190848101908c83111561181557600080fd5b928501925b8284101561183b5761182c8d85611736565b8252928401929085019061181a565b8096505050505050509295509295909350565b6000806060838503121561186157600080fd5b823591506118728460208501611736565b90509250929050565b6000806040838503121561188e57600080fd5b823567ffffffffffffffff8111156118a557600080fd5b8301601f810185136118b657600080fd5b803560206118c66117f183611712565b82815260059290921b830181019181810190888411156118e557600080fd5b938201935b8385101561190a576118fb85611663565b825293820193908201906118ea565b98969091013596505050505050565b6020808252600c908201526b3737ba1030b71037bbb732b960a11b604082015260600190565b60006020828403121561195157600080fd5b5051919050565b634e487b7160e01b600052601160045260246000fd5b60008282101561198057611980611958565b500390565b634e487b7160e01b600052600160045260246000fd5b634e487b7160e01b600052603260045260246000fd5b634e487b7160e01b600052603160045260246000fd5b60006000198214156119db576119db611958565b5060010190565b60008083128015600160ff1b850184121615611a0057611a00611958565b6001600160ff1b0384018313811615611a1b57611a1b611958565b5050039056fea26469706673582212208433a00c064ab9783c865e1aac266d63169264d8317e2481b4ffcfa27375525364736f6c63430008090033",
  "linkReferences": {},
  "deployedLinkReferences": {}
}